S00F00004C465F504944362E7372656311
S113000045C0000060C000005EC000005CC000008D
S11300105AC0000058C0000056C0000054C0000080
S113002052C0000050C000004EC000004CC0000090
S11300304AC0000048C0000046C0000044C00000A0
S113004042C0000040C000003EC000003CC00000B0
S11300503AC0000038C0000036C0000034C00000C0
S113006032C0000030C000002EC000002CC00000D0
S11300702AC0000028C0000026C0000024C00000E0
S113008022C0000020C000001EC0000011241FBEBA
S1130090CFEFD0E1DEBFCDBF11E0A0E0B1E0E0EFF3
S11300A0FAE000E00BBF02C007900D92A231B10745
S11300B0D9F721E0A2E1B1E001C01D92AE32B2074E
S11300C0E1F7B2D113C59CCF8FB5826A8FBD8EB5CF
S11300D089618EBD87B3806687BB88EE93E097BD48
S11300E086BD0895009741F08130910541F0019655
S11300F041F41F9AC0980895C09A1F9A08951F98B2
S1130100C09A0895009751F01CF40196C9F03CC0C0
S11301108130910539F0039709F136C080E090E011
S1130120E1DF32C081E090E0DDDF84EF91E09BBD50
S11301308ABD99BD88BD839927C0849BFCCF24C008
S11301408FEF9FEFCFDF84EF91E09BBD8ABD99BD18
S113015088BD839919C0849BFCCF16C081E090E0D0
S1130160C1DF84EF91E099BD88BD9BBD8ABD8FEF4F
S113017094E32CE0815090402040E1F700C000005F
S1130180839902C0849BFCCF10922A0110922B0108
S113019010922C0110922D0180E090E0A3CF0895DD
S11301A0CF92DF92EF92FF92CF93DF9310922601CA
S11301B01092270110922801109229011092220115
S11301C010922301109224011092250110921A0119
S11301D010921B0110921C0110921D0110921E011D
S11301E010921F011092200110922101C0E0D0E072
S11301F080B390E00C2E02C0959587950A94E2F79F
S113020080FF5DC0BE010D2E000C880B990B4AD3F4
S11302106B017C019B01AC01609126017091270167
S113022080912801909129013AD26093260170931C
S113023027018093280190932901C230D105A4F4A9
S1130240A701960160911E0170911F018091200108
S11302509091210124D260931E0170931F01809319
S113026020019093210116C0C630D1059CF0A7014E
S1130270960160911A0170911B0180911C0190916B
S11302801D010DD260931A0170931B0180931C0110
S113029090931D0120E030E040E85FE3609122018B
S11302A0709123018091240190912501F8D16093EC
S11302B022017093230180932401909325012196B8
S11302C0C830D10509F094CFC0902201D090230109
S11302D0E0902401F090250120E030E0A901C7015D
S11302E0B60141D28823A1F0A701960160912601AD
S11302F070912701809128019091290138D260934F
S1130300260170932701809328019093290103C04B
S113031081E090E0F7DEDF91CF91FF90EF90DF90E6
S1130320CF900895CF92DF92EF92FF920F931F9395
S1130330CF93DF9320910A0130910B0140910C017E
S113034050910D0163D3062F172FD82FC92FC090BA
S11303500201D0900301E0900401F0900501A7018F
S1130360960150D318168CF0F7FAF094F7F8F0943D
S1130370A7019601602F712F8D2F9C2FF4D1882314
S113038024F0C02ED12EED2EFC2EC701B601DF9134
S1130390CF911F910F91FF90EF90DF90CF90089530
S11303A011BAB89A179A80E090E09CCE0895CF9243
S11303B0DF92EF92FF922091260130912701409124
S11303C028015091290160910E0170910F018091D3
S11303D010019091110162D1A5DF31D2072E000CDA
S11303E0880B990B5FD26B017C012091060130913F
S11303F00701409108015091090151D125D279BDDD
S113040068BDA70196016091060170910701809172
S113041008019091090142D117D27BBD6ABDFF90BA
S1130420EF90DF90CF9008954FDEBADF0F2E412C6E
S1130430512CF0E86F2EFFE37F2EF02DB1DE20E08B
S113044030E040E850E460912201709123018091F2
S1130450240190912501D6D288230CF4FDC040924A
S11304602A0150922B0160922C0170922D018091EF
S11304701E0190911F01A0912001B0912101809350
S1130480160190931701A0931801B093190180915C
S11304901A0190911B01A0911C01B0911D01809340
S11304A0120190931301A0931401B0931501D4C0C9
S11304B020911601309117014091180150911901B2
S11304C060911E0170911F01809120019091210182
S11304D0E5D06B017C012091120130911301409110
S11304E014015091150160911A0170911B018091C2
S11304F01C0190911D01D2D04B015C0120E030E041
S1130500A901C701B6012FD18823E4F420E030E02B
S1130510A901C501B40127D188230CF0ADC083E043
S113052090E0F0DD61E08091000190910101D1D271
S113053080910001909101010196909301018093B3
S113054000018AC020E030E0A901C701B6010BD147
S113055081113CC020E030E0A901C501B40103D100
S11305608823A4F520E030E0A90160912201709174
S113057023018091240190912501F5D0882399F0DD
S113058080E090E0BFDD62E0809100019091010184
S1130590A0D28091000190910101019690930101F4
S11305A08093000159C08FEF9FEFACDD63E0809131
S11305B00001909101018DD280910001909101017F
S11305C00196909301018093000146C020E030E041
S11305D0A901C701B601C7D088230CF03CC020E0B4
S11305E030E0A901C501B401BED0811134C020E0BE
S11305F030E0A901609122017091230180912401CE
S113060090912501B0D0882399F083E090E07ADDC1
S113061064E080910001909101015BD2809100011E
S1130620909101010196909301018093000114C0FF
S113063081E090E067DD65E0809100019091010127
S113064048D280910001909101010196909301019B
S11306508093000101C0A4DDA301920160912A01ED
S113066070912B0180912C0190912D017CD08823D5
S113067009F41ECF9CDEE2CE20E030E0A901C701E0
S1130680B60171D08111ABCF20E030E0A901C501E2
S1130690B40169D088230CF0A2CF64CF5058BB2793
S11306A0AA270ED075C166D130F06BD120F031F499
S11306B09F3F11F41EF45BC10EF4E095E7FB51C1BA
S11306C0E92F77D180F3BA17620773078407950778
S11306D018F071F49EF58FC10EF4E0950B2EBA2F2D
S11306E0A02D0B01B90190010C01CA01A001112434
S11306F0FF27591B99F0593F50F4503E68F11A16E0
S1130700F040A22F232F342F4427585FF3CF469570
S113071037952795A795F0405395C9F77EF41F1692
S1130720BA0B620B730B840BBAF09150A1F0FF0F5C
S1130730BB1F661F771F881FC2F70EC0BA0F621F48
S1130740731F841F48F4879577956795B795F79538
S11307509E3F08F0B3CF9395880F08F09927EE0FCA
S1130760979587950895D9D008F481E008950CD021
S11307700FC107D140F0FED030F021F45F3F19F0F3
S1130780F0C0511139C1F3C014D198F39923C9F3BE
S11307905523B1F3951B550BBB27AA276217730783
S11307A0840738F09F5F5F4F220F331F441FAA1F37
S11307B0A9F333D00E2E3AF0E0E830D091505040F7
S11307C0E695001CCAF729D0FE2F27D0660F771FA5
S11307D0881FBB1F261737074807AB07B0E809F087
S11307E0BB0B802DBF01FF2793585F4F2AF09E3F1C
S11307F0510568F0B6C000C15F3FECF3983EDCF3EE
S1130800869577956795B795F7959F5FC9F7880F94
S1130810911D9695879597F90895E1E0660F771FE6
S1130820881FBB1F621773078407BA0720F0621B77
S1130830730B840BBA0BEE1F88F7E095089504D070
S11308406894B111D9C00895BCD088F09F5790F036
S1130850B92F9927B751A0F0D1F0660F771F881FE1
S1130860991F1AF0BA95C9F712C0B13081F0C3D0FC
S1130870B1E00895C0C0672F782F8827B85F39F09A
S1130880B93FCCF3869577956795B395D9F73EF440
S113089090958095709561957F4F8F4F9F4F0895E8
S11308A0E89409C097FB3EF4909580957095619506
S11308B07F4F8F4F9F4F9923A9F0F92F96E9BB27BC
S11308C09395F695879577956795B795F111F8CF38
S11308D0FAF4BB0F11F460FF1BC06F5F7F4F8F4FA3
S11308E09F4F16C0882311F096E911C0772321F099
S11308F09EE8872F762F05C0662371F096E8862F31
S113090070E060E02AF09A95660F771F881FDAF787
S1130910880F9695879597F90895990F0008550FB4
S1130920AA0BE0E8FEEF16161706E807F907C0F071
S113093012161306E407F50798F0621B730B840B79
S1130940950B39F40A2661F0232B242B252B21F453
S113095008950A2609F4A140A6958FEF811D811DF3
S1130960089597F99F6780E870E060E008959FEF2D
S113097080EC089500240A94161617061806090632
S1130980089500240A941216130614060506089501
S1130990092E0394000C11F4882352F0BB0F40F489
S11309A0BF2B11F460FF04C06F5F7F4F8F4F9F4FC9
S11309B0089557FD9058440F551F59F05F3F71F04B
S11309C04795880F97FB991F61F09F3F79F08795B2
S11309D00895121613061406551FF2CF4695F1DF3B
S11309E008C0161617061806991FF1CF86957105CB
S11309F0610508940895E894BB2766277727CB01FF
S1130A0097F908958ADF08F48FEF08950BD0C0CFCB
S1130A10B1DF28F0B6DF18F0952309F0A2CFA7CFF5
S1130A201124EACFC6DFA0F3959FD1F3950F50E0D0
S1130A30551F629FF001729FBB27F00DB11D639F8C
S1130A40AA27F00DB11DAA1F649F6627B00DA11D32
S1130A50661F829F2227B00DA11D621F739FB00DD8
S1130A60A11D621F839FA00D611D221F749F332748
S1130A70A00D611D231F849F600D211D822F762FE1
S1130A806A2F11249F5750408AF0E1F088234AF0DE
S1130A90EE0FFF1FBB1F661F771F881F915050402A
S1130AA0A9F79E3F510570F05CCFA6CF5F3FECF3F2
S1130AB0983EDCF3869577956795B795F795E79516
S1130AC09F5FC1F7FE2B880F911D9695879597F927
S1130AD00895262FE199FECF9FBB8EBB2DBB0FB689
S1130AE0F894E29AE19A0FBE01960895F894FFCF24
S1130AF000000000AF430000AF430000FA420000D2
S1050B0060404F
S9030000FC
